:020000040800F2
:100000005004002005010008453100084731000870
:100010004B3100084F310008533100080000000048
:100020000000000000000000000000005731000840
:1000300059310008000000005B3100085D31000804
:100040001F0100081F0100081F0100081F01000810
:100050001F0100081F0100081F0100081F01000800
:100060001F0100081F0100081F0100081F010008F0
:100070001F0100081F0100081F0100081F010008E0
:100080001F0100081F0100081F0100081F010008D0
:100090001F0100081F0100081F0100081F010008C0
:1000A0001F010008192700081F0100081F01000890
:1000B0001F0100081F0100082D2700081F0100086C
:1000C0001F0100081F0100081F0100081F01000890
:1000D0001F0100081F230008E7270008D12400089B
:1000E0001F0100081F0100081F010008DFF810D0E1
:1000F00003F0EAFB004800472F2F0008AFF3008011
:10010000500400200648804706480047FEE7FEE707
:10011000FEE7FEE7FEE7FEE7FEE7FEE7FEE7FEE7B7
:1001200007020008ED0000080CB5002001900090C7
:100130006C48006840F480306A49086000BF694834
:10014000006800F4003000900198401C0190009875
:1001500018B90198B0F5A06FF1D16248006800F4B9
:10016000003010B10120009001E0002000900098C4
:10017000012843D15C48006840F010005A490860EB
:100180000846006820F0030008600846006840F058
:100190000200086053484068524948600846406879
:1001A00048600846406840F48060486008464068FF
:1001B00020F47C1048600846406840F4E81048602D
:1001C0000846006840F08070086000BF454800683D
:1001D00000F000700028F9D04248406820F0030089
:1001E000404948600846406840F00200486000BF4F
:1001F0003C48406800F00C000828F9D10CBD10B54F
:10020000FFF792FF10BD10B53648006840F00100BE
:10021000344908600846406834490840314948601C
:1002200008460068324908402E49086008460068C0
:1002300020F4802008600846406820F4FE004860F2
:100240004FF41F008860FFF7DAFF4FF00060294984
:10025000086010BD10B5002100200022214B5B6812
:1002600003F00C0121B1042906D0082928D107E0A8
:10027000214B224C236027E01F4B204C236023E0BE
:10028000184B5B6803F47010164B5B6803F4803204
:10029000022303EB904022B9194B4343174C2360D0
:1002A0000DE0104B5B6803F4003323B1144B434360
:1002B000124C236003E0104B4343104C236003E0D7
:1002C0000D4B0E4C236000BF00BF064B5B68C3F3B1
:1002D00003130C4CE15C094B1B68CB40074C2360BB
:1002E00010BD000000100240002002400000FFF896
:1002F000FFFFF6FE08ED00E000127A00000000208B
:1003000000093D000400002031490143314A1160D9
:10031000704770B5002100230F22C47804B32D4C20
:10032000246804F4E064C4F5E064210AC1F1040324
:10033000CA40447804FA03F1847814402143090147
:10034000254C0678A155047804F01F050124AC4023
:1003500005786D11AD0005F1E025C5F8004109E013
:10036000047804F01F050124AC401C4D067876117A
:1003700045F8264070BD1A4A0A400243154B1B1F20
:100380001A60704739B1134A121D12680243114BAB
:100390001B1D1A6006E00F4A121D126882430D4BA6
:1003A0001B1D1A607047042808D14FF0E02109692D
:1003B00041F004014FF0E022116107E04FF0E0212D
:1003C000096921F004014FF0E0221161704700003B
:1003D0000000FA050CED00E000E400E080E100E040
:1003E00080FFFF1F10B50446CC48844208D101218C
:1003F000042000F02DFB0021042000F029FB46E042
:10040000C748844208D10121082000F021FB0021C7
:10041000082000F01DFB3AE0C248844208D10121C7
:10042000102000F015FB0021102000F011FB2EE041
:10043000BD48844208D10121202000F009FB0021A1
:10044000202000F005FB22E0B848844208D10121B9
:10045000402000F0FDFA0021402000F0F9FA16E0FB
:10046000B348844208D10121802000F0F1FA002134
:10047000802000F0EDFA0AE0AE48844207D1012165
:10048000801500F0E5FA0021A01500F0E1FA10BD9A
:1004900010B50121084600F0DBFA0021012000F030
:1004A000D7FA10BD2DE9F0410246002500260020B4
:1004B00000230024002791F803C00CF00F0591F8E9
:1004C00003C00CF0100CBCF1000F03D091F802C077
:1004D0004CEA050591F800C0BCF1000F31D014685A
:1004E00000202BE04FF0010C0CFA00F3B1F800C033
:1004F0000CEA03069E4220D183004FF00F0C0CFA49
:1005000003F7BC4305FA03FC4CEA040491F803C06A
:10051000BCF1280F06D14FF0010C0CFA00FCC2F818
:1005200014C00AE091F803C0BCF1480F05D14FF0A8
:10053000010C0CFA00FCC2F810C0401C0828D1D3F2
:100540001460B1F800C0BCF1FF0F34DD5468002026
:100550002EE000F1080C4FF0010808FA0CF3B1F896
:1005600000C00CEA03069E4221D183004FF00F0C1D
:100570000CFA03F7BC4305FA03FC4CEA040491F8B7
:1005800003C0BCF1280F05D100F1080C08FA0CF8E3
:10059000C2F8148091F803C0BCF1480F07D100F1F4
:1005A000080C4FF0010808FA0CF8C2F81080401C43
:1005B0000828CED35460BDE8F0814FF6FF7101806A
:1005C000022181700421C1707047024600209368A7
:1005D0000B400BB1012000E0002070470146886805
:1005E00080B2704702460020D3680B400BB1012057
:1005F00000E0002070470146C86880B27047016182
:100600007047416170470AB1016100E04161704784
:10061000C16070474FF480320A4382618161826118
:1006200082698269704702460020434B18684FF682
:100630008073184040EA021008433F4B186070472F
:100640003E49C8617047F0B50A46002300240021E6
:10065000002500F00046B6F1004F02D1364EF16998
:1006600001E0354E7168C0F3034583B200F44016D3
:10067000B6F5401F08D121F070612F4E766826F044
:1006800070662D4F7E6012E000F48016B6F5801F74
:1006900006D1032606FA05F4A14341F0706106E095
:1006A000460D360103FA06F6B14341F0706122B1FE
:1006B000460D360103FA06F6314300F00046B6F166
:1006C000004F02D11C4EF16101E01B4E7160F0BD84
:1006D00030B500228B071C0F0F2303FA04F2164BD0
:1006E00008338C1053F824309343134C08348D1086
:1006F00044F8253023468C1053F824308C07240FFF
:1007000000FA04F423430C4C08348D1044F82530CF
:1007100030BD0A49DC310860704700000008014024
:10072000000C01400010014000140140001801407D
:10073000001C014000200140000001400000204258
:10074000DF48006840F00100DD4908600846406865
:10075000DC490840DA49486008460068DA49084040
:10076000D74908600846006820F4802008600846E1
:10077000406820F4FE0048604FF41F008860704716
:10078000CF49096821F48031CD4A116011460968CA
:1007900021F480211160B0F5803F03D0B0F5802FA7
:1007A0000ED106E0C649096841F48031C44A11609F
:1007B00007E0C349096841F4A021C14A116000E083
:1007C00000BF00BF704710B5014600220023002083
:1007D0004A11012A02D1BA4C236806E0022A02D14A
:1007E000B74C236A01E0B64C636A01F01F02012492
:1007F00094401C400CB1012000E0002010BD38B531
:10080000002000900024002500BF3120FFF7DBFF0F
:1008100005460098401C00900098B0F5A06F01D0EC
:10082000002DF2D03120FFF7CEFF08B1012400E007
:100830000024204638BD01460020A14A106820F05F
:10084000F80040EAC10010607047A0490860704796
:10085000024600209A4B586820F47C1042EA0103BB
:100860001843974B5860704798490866704701468F
:100870000020934A506820F00300084350607047FE
:100880008F48406800F00C007047014600208C4AF9
:10089000506820F0F0000843506070470146002087
:1008A000874A506820F4E060084350607047014672
:1008B0000020834A506820F4605040EAC100506034
:1008C000704729B17E4A527A02437D4B5A7204E046
:1008D0007B4A527A82437A4B5A7270477B49D831AD
:1008E0000860704701460020754A506820F4404077
:1008F0000843506070470021714A20321170704ADD
:1009000082F82010012802D004280AD104E0012135
:100910006B4A2032117005E00521694A20321170BE
:1009200000E000BF00BF7047694908607047644934
:10093000096A0143624A1162704765494439086097
:10094000704730B500210022002400235C4D6D6803
:1009500005F00C0121B1042905D0082923D105E0B7
:100960005C4D056022E05B4D05601FE0544D6D68F5
:1009700005F47012524D6D6805F48034022505EBC4
:1009800092421CB9544D554305600BE04C4D6D68C7
:1009900005F400351DB1504D5543056002E04D4D45
:1009A0005543056002E04B4D056000BF00BF444D5C
:1009B0006D6805F0F0010909484D6B5C0568DD4084
:1009C00045603F4D6D6805F4E061090A434D6B5C7D
:1009D0004568DD4085603A4D6D6805F46051C90A8F
:1009E0003E4D6B5C4568DD40C560354D6D6805F476
:1009F0004041890B3A4D6B5CC568B5FBF3F5056169
:100A000030BD29B12E4A526902432D4B5A6104E090
:100A10002B4A526982432A4B5A61704729B1284AAE
:100A200092690243264B9A6104E0254A9269824307
:100A3000234B9A61704729B1214AD2690243204B66
:100A4000DA6104E01E4AD26982431D4BDA617047C5
:100A500029B11B4AD2680243194BDA6004E0184AF4
:100A6000D2688243164BDA60704729B1144A126982
:100A70000243134B1A6104E0114A12698243104B7E
:100A80001A61704712494039086070470F49C864BD
:100A900070470B49C87170470948406A40F0807040
:100AA00007494862704701460020054A92680A409B
:100AB0000AB1012000E000207047014988727047A8
:100AC000001002400000FFF8FFFFF6FE0000424267
:100AD0008004424200127A0000093D001400002008
:100AE0002400002010B50446FE48844208D10121AC
:100AF000C014FFF7ADFF0021E014FFF7A9FFC4E029
:100B0000B4F1804F08D101210846FFF7AEFF002164
:100B10000120FFF7AAFFB8E0F348844208D1012181
:100B20000220FFF7A2FF00210220FFF79EFFACE0AA
:100B3000EE48844208D101210420FFF796FF0021EE
:100B40000420FFF792FFA0E0E948844208D1012188
:100B50000820FFF78AFF00210820FFF786FF94E0B6
:100B6000E448844208D101211020FFF77EFF0021D4
:100B70001020FFF77AFF88E0DF48844208D1012186
:100B80002020FFF772FF00212020FFF76EFF7CE09E
:100B9000DA48844208D101214014FFF759FF0021AF
:100BA0006014FFF755FF70E0D548844209D1012158
:100BB000C804FFF74DFF00214FF40020FFF748FF66
:100BC00063E0D048844209D101210805FFF740FFC6
:100BD00000214FF48010FFF73BFF56E0CA488442E3
:100BE00009D101214805FFF733FF00214FF4001020
:100BF000FFF72EFF49E0C548844208D1012140207B
:100C0000FFF733FF00214020FFF72FFF3DE0C048F2
:100C1000844208D101218020FFF727FF0021802096
:100C2000FFF723FF31E0BB48844208D10121801542
:100C3000FFF71BFF0021A015FFF717FF25E0B648BF
:100C4000844209D101210804FFF702FF00214FF47B
:100C50008030FFF7FDFE18E0B048844209D1012141
:100C60004804FFF7F5FE00214FF40030FFF7F0FED7
:100C70000BE0AB48844208D101218804FFF7E8FE6D
:100C800000214FF48020FFF7E3FE10BD0022028810
:100C9000944B98420ED0994B98420BD0B0F1804FB4
:100CA00008D0914B984205D0904B984202D0904B7F
:100CB000984204D14FF68F731A404B881A438D4BDC
:100CC000984207D08C4B984204D04FF6FF431A400D
:100CD000CB881A4302808B8883850B880385814BE0
:100CE00098420BD0854B984208D08B4B984205D048
:100CF0008A4B984202D08A4B984201D10B7A0386E4
:100D000001238382704770B5002400220023058CE4
:100D10004FF6FE7635400584028C8388048B4FF6AF
:100D20008F752C40B51E2C400D882C43751E2A4013
:100D30000D892A434D882A436A4DA8420BD06F4D36
:100D4000A84208D0744DA84205D0744DA84202D0E4
:100D5000734DA84213D14FF6F7752A404D892A43A7
:100D60004FF6FB752A408D882A434FF6FF652B40CE
:100D70004FF6FF552B408D892B43CD892B43838024
:100D80000483CD888586028470BD70B5002400225E
:100D90000023058C4FF6EF7635400584028C83885E
:100DA000048B48F6FF752C404FF6FF452C400D880C
:100DB0004FF6FF7606EA05252C434FF6DF752A40ED
:100DC0000D8906EA05152A434D8806EA05152A43CA
:100DD000444DA84202D0494DA8421DD14FF67F751F
:100DE0002A404D894FF6FF7606EA05152A434FF64D
:100DF000BF752A408D8806EA05152A434FF6FF3550
:100E00002B404FF2FF752B408D8906EA85052B4359
:100E1000CD8906EA85052B4383800483CD88058729
:100E2000028470BD70B5002400220023058C4FF6AB
:100E3000FF6635400584028C8388848B4FF68F755E
:100E40002C404FF6FC752C400D882C434FF6FF5577
:100E50002A400D894FF6FF7606EA05252A434D887C
:100E600006EA05252A431F4DA84202D0234DA84279
:100E70001DD14FF2FF752A404D894FF6FF7606EAE5
:100E800005252A434FF6FF352A408D8806EA0525B9
:100E90002A434EF6FF752B404DF6FF752B408D898A
:100EA00006EA05152B43CD8906EA05152B438380F9
:100EB0008483CD888587028470BD70B500220023AD
:100EC0000024058C4EF6FF7635400584038C84881B
:100ED000828B48F6FF752A404FF6FF452A400D8861
:100EE00020E00000002C0140000400400008004009
:100EF000000C00400010004000140040003401408D
:100F0000004C0140005001400054014000180040D6
:100F1000001C00400020004000400140004401400F
:100F2000004801404FF6FF7606EA05252A434DF6B4
:100F3000FF752B400D8906EA05352B434D8806EADF
:100F400005352B43FA4DA84202D0FA4DA84208D1EC
:100F50004BF6FF752C408D894FF6FF7606EA851516
:100F60002C4384808283CD88A0F84050038470BDD8
:100F7000828B4FF2FF331A408283828B4FF6FF73CE
:100F800003EA01231A4382837047F0B50C461546E5
:100F9000002200210026078C4EF6FF7C07EA0C0792
:100FA0000784828B018C4FF6FF7707EA043640F600
:100FB000FF473A404FF6FF7707EA05273A434FF6D7
:100FC000FF7707EA03373A43D94FB8420ED0D94FDB
:100FD000B8420BD0B0F1804F08D0D74FB84205D0FF
:100FE000D64FB84202D0D64FB84206D14DF6FF7761
:100FF000394046F48057394305E047F6FF573940FA
:1010000044F48057394382830184F0BD828B4FF6CC
:10101000F3731A408283828B0A4382837047F0B550
:101020000C461546002200210026078C4FF6FF6C67
:1010300007EA0C070784828B018C4FF6FF7707EADB
:1010400004264FF60C773A404FF6FF7707EA03176E
:101050002F433A43B64FB8420ED0B64FB8420BD0EA
:10106000B0F1804F08D0B44FB84205D0B34FB8426A
:1010700002D0B34FB84206D14FF6FF57394046F47D
:101080008077394305E04FF2FF57394044F48077C9
:10109000394382830184F0BD028B4FF2FF331A4043
:1010A0000283028B4FF6FF7303EA01231A43028384
:1010B0007047F0B50C461546002200210026078C2B
:1010C0004FF6EF7C07EA0C070784028B018C4FF682
:1010D000FF7707EA041640F6FF473A404FF6FF77DE
:1010E00007EA03373A434FF6FF7707EA05273A4303
:1010F0008F4FB8420ED08F4FB8420BD0B0F1804F17
:1011000008D08D4FB84205D08C4FB84202D08C4FDA
:10111000B84206D14FF6DF77394046F01007394321
:1011200005E04FF65F77394044F0100739430283FA
:101130000184F0BD028B4FF6F3731A400283028BD9
:101140000A4302837047F0B50C4615460022002181
:10115000068C4FF6FE773E400684028B018C4FF6DC
:101160000C7632407E1C06EA03162E433243704E44
:10117000B0420ED06F4EB0420BD0B0F1804F08D0CD
:101180006D4EB04205D06D4EB04202D06C4EB042B2
:1011900006D14FF6FD76314044F00106314305E0BB
:1011A0004FF6F576314044F0010631430283018465
:1011B000F0BD70B505460C465D4885420ED05D48D1
:1011C00085420BD0B5F1804F08D05B48854205D0F1
:1011D0005A48854202D05A48854200D100E000BFFB
:1011E000208850B92389A28861882846FFF7ABFF81
:1011F000E1882846FFF79EFF25E0208804280AD1D1
:101200002389A28861882846FFF753FFE188284692
:10121000FFF742FF17E0208808280AD12389A28817
:1012200061882846FFF7FBFEE1882846FFF7EEFEBF
:1012300009E02389A28861882846FFF7A6FEE18895
:101240002846FFF795FE70BD2DE9F04105460C4696
:1012500000260127608808B9022600E00026A08841
:10126000012801D1022700E001272088A0B92389A5
:10127000A28861882846FFF766FFE1882846FFF7C5
:1012800059FF23893A4631462846FFF712FFE18885
:101290002846FFF701FF13E02389A28861882846CA
:1012A000FFF707FFE1882846FFF7F6FE23893A4655
:1012B00031462846FFF747FFE1882846FFF73AFF07
:1012C000BDE8F0810A884B881A438B881A43CB8883
:1012D0001A430B891A434B891A438B891A43A0F886
:1012E000442070474FF6FF71818000210180C1804A
:1012F0004180017270470021018041808180C1805E
:10130000018141818181C18170470021018041803B
:10131000012181800021C18001817047002101806D
:1013200041808180C18001814181818170470000BD
:10133000002C01400034014000040040000800403F
:10134000000C004021B1028842F00102028004E05A
:1013500002884FF6FE731A400280704731B1B0F830
:10136000442042F40042A0F8442005E0B0F84420B4
:10137000C2F30E02A0F8442070471AB183890B43D0
:10138000838102E083898B43838170478182704728
:1013900041EA0203A0F8483070471AB183890B4331
:1013A000838102E083898B438381704701894FF6F3
:1013B000F8721140018170470A46002101894FF6F9
:1013C0008F73194011430181704730B504460D46B3
:1013D00029462046FFF7F0FF208940F007002081D2
:1013E00030BD2DE9F04104460D4616461F46602DDE
:1013F00006D13B46012231462046FFF75AFE05E062
:101400003B46012231462046FFF79DFE29462046F5
:10141000FFF7D2FF208940F007002081BDE8F0816E
:1014200030B50C4600210189C9B24FF6FF7505EAB7
:101430000325154325432943018130BD2DE9F041A2
:1014400005460E4617469846002443463A4631461E
:101450002846FFF7E5FF2C894FF6F870044044F06A
:1014600007044FF68F70044044F070042C81BDE8EF
:10147000F081F0B504460D4616461F463B463246FF
:1014800029462046FFF7CCFF208940F48040208188
:10149000F0BD0185828270470A46002101884FF61F
:1014A0008F731940114301807047F0B50C46154603
:1014B0001E460021002200230189028B038C4FF677
:1014C000F877394021434FF6FC473A4040F2011784
:1014D0003A434FF6DD773B404FF6FF7707EA0617B2
:1014E0002F433B43018102830384F0BD0A46002160
:1014F000018B4FF68F7319401143018370470A46E1
:101500000021018B48F6FF7319404FF6FF7303EA81
:1015100002231943018370470A460021818B4FF64D
:101520008F7319401143818370470A460021818BD4
:1015300048F6FF7319404FF6FF7303EA022319437D
:101540008183704721B1028842F08002028004E06A
:1015500002884FF67F731A400280704721B182885B
:1015600042F00402828004E082884FF6FB731A4046
:101570008280704721B1828842F00802828004E0B4
:1015800082884FF6F7731A408280704721B18288B3
:1015900042F00102828004E082884FF6FE731A4016
:1015A000828070470A460021018B4FF6F77319407D
:1015B0001143018370470A460021018B4FF2FF73EC
:1015C00019404FF6FF7303EA022319430183704762
:1015D0000A460021818B4FF6F7731940114381832E
:1015E00070470A460021818B4FF2FF7319404FF676
:1015F000FF7303EA02231943818370470A460021DF
:10160000018B4FF6FB7319401143018370470A4663
:101610000021018B4FF6FF3319404FF6FF7303EAA9
:1016200002231943018370470A460021818B4FF63C
:10163000FB7319401143818370470A460021818B57
:101640004FF6FF3319404FF6FF7303EA02231943A5
:10165000818370470A460021018B4FF67F73194042
:101660001143018370470A460021018BC1F30E012B
:101670004FF6FF7303EA02231943018370470A46BA
:101680000021818B4FF67F7319401143818370478E
:101690000A460021818BC1F30E014FF6FF7303EA66
:1016A00002231943818370470A460021018C4FF6BB
:1016B000FD7319401143018470470A460021018CD3
:1016C0004FF6F77319401143018470470A46002111
:1016D000018C4FF6DF7319404FF6FF7303EA0213D4
:1016E0001943018470470A460021018C4FF67F732D
:1016F00019404FF6FF7303EA021319430184704740
:101700000A460021018C4FF6FF5319404FF6FF7334
:1017100003EA02231943018470470A460021018C21
:101720004FF2FF7319404FF6FF7303EA0223194388
:10173000018470470A460021018C4DF6FF73194061
:101740004FF6FF7303EA023319430184704730B543
:10175000002301248C40A3B2048C9C430484048C99
:1017600002FA01F5ADB22C43048430BD30B500233C
:1017700004248C40A3B2048C9C430484048C02FA9D
:1017800001F5ADB22C43048430BD70B50346002092
:1017900000241846183001258D40ACB21D8CA5439D
:1017A0001D8409B1082909D100EB6100056825F005
:1017B000700505600568154305600EE00D1FC5F353
:1017C0004E052844056825F4E045056005684FF698
:1017D000FF7606EA02263543056070BD21B1028816
:1017E00042F00202028004E002884FF6FD731A40C4
:1017F0000280704721B1028842F00402028004E0B6
:1018000002884FF6FB731A400280704721B182882C
:1018100042F08002828004E082884FF67F731A4093
:101820008280704702884FF6F7731A400280028860
:101830000A430280704782884FF68F731A40828075
:1018400082880A438280704702894FF6F8731A40F3
:10185000028102890A430281704702894FF67F7331
:101860001A40028102890A430281704781847047CD
:1018700081857047818670470187704781877047EF
:10188000A0F84010704702884FF6FF431A400280CC
:1018900002880A43028070470146888E70470146DD
:1018A000088F70470146888F70470146B1F84000A5
:1018B00070470146888C70470146088D7047024684
:1018C0000020138A0B400BB1012000E0002070477C
:1018D000CA430282704730B502460020002300242C
:1018E000158A05EA0103958905EA010413B10CB1D3
:1018F000012000E0002030BDCA4302827047000092
:1019000010B50446FB48844209D101218803FFF742
:101910009FF800214FF48040FFF79AF832E0F64834
:10192000844209D101214804FFF79FF800214FF4B8
:101930000030FFF79AF825E0F048844209D10121F0
:101940008804FFF792F800214FF48020FFF78DF80C
:1019500018E0EB48844209D10121C804FFF785F85B
:1019600000214FF40020FFF780F80BE0E5488442A7
:1019700008D101210805FFF778F800214FF4801005
:10198000FFF773F810BD2DE9F04786B005460E4607
:101990000024A24600BFA1460027B08900B100BFC5
:1019A0002F462C8A4CF6FF700440F08804432C82AA
:1019B000AC894EF6F3100440B08831890843718930
:1019C00008430443AC81AC8A4FF6FF400440B08921
:1019D0000443AC8201A8FEF7B4FFC648874202D197
:1019E000DDF810A001E0DDF80CA0A88900F40040AB
:1019F00040B10AEBCA0000EB0A1031684900B0FBA5
:101A0000F1F807E00AEBCA0000EB0A103168890020
:101A1000B0FBF1F86420B8FBF0F004012009642168
:101A200001FB1089A88900F4004040B1322000EB8E
:101A3000C900B0FBF1F000F00700044308E03220D9
:101A400000EB09106421B0FBF1F000F00F0004433B
:101A50002C8106B0BDE8F0874FF4165101600021DB
:101A60008180C18001810C214181002181817047E9
:101A700010B502460020108A4FF2FF0318400B8871
:101A80004C8823438C882343CC88234318431082FB
:101A900010BD0021018041808180C180704721B14B
:101AA000828942F40052828104E082894DF6FF73FC
:101AB0001A4082817047F0B50346002400260025B5
:101AC000002040F66A17B94200D100BF1846C1F3A2
:101AD000421401F01F06012707FA06F5012C01D177
:101AE0000C3004E0022C01D1103000E014301AB1A7
:101AF00007682F43076002E00768AF430760F0BD47
:101B00001AB1838A0B43838202E0838A8B438382E8
:101B10007047028A4FF6F0731A400282028A0A4323
:101B20000282704782894FF2FF731A408281828954
:101B30000A438281704721B1828942F00202828188
:101B400004E082894FF6FD731A4082817047028A51
:101B50004FF6DF731A400282028A0A4302827047FC
:101B600021B1028A42F48042028204E0028A4BF6EA
:101B7000FF731A4002827047C1F3080282807047E7
:101B800001468888C0F308007047818941F001014F
:101B900081817047028BD2B20283028B42EA01221A
:101BA00002837047028B02F47F420283028B0A4356
:101BB0000283704721B1828A42F02002828204E0CF
:101BC000828A4FF6DF731A408282704721B1828A7F
:101BD00042F01002828204E0828A4FF6EF731A40CC
:101BE0008282704721B1828A42F00802828204E038
:101BF000828A4FF6F7731A408282704721B1828938
:101C000042F40042828103E08289C2F30E028281A3
:101C1000704721B1828A42F40062828204E0828AA3
:101C20004FF2FF731A4082827047828A4FF6FB732D
:101C30001A408282828A0A438282704721B1828A54
:101C400042F00202828204E0828A4FF6FD731A405B
:101C50008282704702460020B1F5007F00D100BFAC
:101C600013880B400BB1012000E00020704701F405
:101C70000072B2F5007F00D100BFCA4302807047F6
:101C800070B50246002400230025002040F66A16A5
:101C9000B14200D100BFC1F3421501F01F0301267C
:101CA00006FA03F3012D02D19689334006E0022D96
:101CB00002D1168A334001E0968A33400C12012685
:101CC00006FA04F41688344013B10CB1012000E088
:101CD000002070BD10B50022002340F66A14A14216
:101CE00000D100BF0A1201249440A3B2DC43048057
:101CF00010BD000000380140004400400048004092
:101D0000004C00400050004010B50446FA488442A0
:101D100008D101214015FEF79BFE00216015FEF75A
:101D200097FE17E0F548844208D101210015FEF71F
:101D30008FFE00212015FEF78BFE0BE0F048844259
:101D400008D10121C803FEF783FE00214FF40040B3
:101D5000FEF77EFE10BD30B502460020002350681D
:101D6000E84C20400D790C6844EA0524204350607B
:101D70009068E54C2040D1E902542C434D7944EA67
:101D8000450420439060D06A20F470000C7C641EEF
:101D9000E4B2234340EA0350D06230BD0021016029
:101DA000017141718160C16001210174704721B1ED
:101DB000826842F00102826003E0826822F0010240
:101DC0008260704721B1826842F48072826003E0D1
:101DD000826822F480728260704710B50023CBB213
:101DE0001AB144681C43446002E044689C43446068
:101DF00010BD816841F008018160704701460020F4
:101E00008A6802F008020AB1012000E00020704751
:101E1000816841F0040181607047014600208A68B2
:101E200002F004020AB1012000E00020704721B155
:101E3000826842F4A002826003E0826822F4A00279
:101E400082607047014600208A6802F480020AB16D
:101E5000012000E00020704710B50A460021002351
:101E6000416821F46041531E41EA4331416010BD95
:101E700021B1426842F40062426003E0426822F409
:101E8000006242607047F0B504460D460020002114
:101E9000092D11DDE068A5F10A0606EB46070726C5
:101EA00006FA07F18843A5F10A0606EB460603FA8F
:101EB00006F10843E0600CE0206905EB45070726C2
:101EC00006FA07F1884305EB450603FA06F10843D5
:101ED0002061072A0FDA606B561E06EB86071F2665
:101EE00006FA07F18843561E06EB860605FA06F148
:101EF0000843606322E00D2A0FDA206BD61F06EB41
:101F000086071F2606FA07F18843D61F06EB8606CA
:101F100005FA06F10843206310E0E06AA2F10D061D
:101F200006EB86071F2606FA07F18843A2F10D0685
:101F300006EB860605FA06F10843E062F0BD21B122
:101F4000826842F48012826003E0826822F4801288
:101F5000826070470146C86C80B2704766484C305A
:101F60000068704721B1426842F48062426003E039
:101F7000426822F480624260704721B1426842F4B4
:101F80008052426003E0426822F48052426070470F
:101F90000A460021816821F4E041114381607047C5
:101FA00021B1826842F40042826003E0826822F438
:101FB00000428260704721B1826842F4021282605E
:101FC00003E0826822F4021282607047014600201A
:101FD0008A6802F400120AB1012000E00020704774
:101FE000F0B504461546002000220026092911DD1F
:101FF000E068A1F10A0707EB470C072707FA0CF284
:102000009043A1F10A0707EB470703FA07F21043D1
:10201000E0600CE0206901EB410C072707FA0CF2A5
:10202000904301EB410703FA07F210432061A06BD4
:10203000C0F30156EF1C06F1010CA7EB0C0707EBF0
:10204000870C1F2707FA0CF29043EF1C06F1010CD6
:10205000A7EB0C0707EB870701FA07F21043A06311
:10206000F0BD10B50A4600210023816B21F4401118
:10207000531E41EA0351816310BD08B5002300934C
:102080000090009B0B440093009B1A6008BD08B5AC
:10209000024600200090009201F12800009B1844A5
:1020A00000900098006880B208BD0A46002141688F
:1020B000164B19401143416070474162826270477C
:1020C0000A460021416821F01F0111434160704719
:1020D00040B109490831096841F40001064A083253
:1020E000116007E004490831096821F40001024A3F
:1020F00008321160704700000024014000280140B0
:10210000003C0140FFFEF0FFFDF7F1FFFFFD3FFF48
:102110000246002013680B400BB1012000E00020B4
:102120007047CA430260704770B502460020002322
:1021300000240B125568CEB205EA060415681D404E
:1021400015B10CB1012000E0002070BD00220A1280
:10215000D3430360704700004FF0E020006920F097
:1021600004004FF0E0210861092036490870084654
:10217000007800EB4001C1EBC0104FF6FF7101EA9F
:10218000C000314908807047002120F07F402D4A6F
:10219000127842434FF0E0235A6100229A610122F3
:1021A0001A6100BF4FF0E022116901F001021AB17B
:1021B00001F48032002AF5D000224FF0E0231A61AA
:1021C0009A617047002100B9704720F07F401E4A95
:1021D000128842434FF0E0235A6100229A610122A3
:1021E0001A6100BF4FF0E022116901F001021AB13B
:1021F00001F48032002AF5D000224FF0E0231A616A
:102200009A6100BFE0E770B50446002600254FF450
:10221000FA7094FBF0F0C6B24FF4FA7094FBF0F150
:1022200000FB114085B205E04FF4FA70FFF7CAFFDA
:10223000701EC6B2002EF7D115B12846FFF7C2FFB7
:1022400070BD0000280000202A00002070B5044660
:102250000D4600BF40219648FFF7FCFC0028F9D04E
:10226000E1B29348FFF788FC204670BD10B50446E4
:1022700000BF20218E48FFF7EDFC0028F9D08C48E4
:10228000FFF77EFC10BD10B586B00446012144F274
:102290000400FEF7C3FB4FF40070ADF814001820E3
:1022A0008DF8170003208DF8160005A98148FEF768
:1022B000F9F84FF48060ADF8140048208DF817004D
:1022C00005A97C48FEF7EEF801940020ADF808005F
:1022D000ADF80A00ADF80C00ADF810000C20ADF818
:1022E0000E0001A97248FFF74EFB012240F2255172
:1022F0006F48FFF7E0FB01216D48FFF7D0FB252079
:102300008DF8000000208DF801008DF802000120FA
:102310008DF803006846FDF7FCFF06B010BD10B550
:1023200040F225516248FFF7ABFC002870D06048AE
:10233000FFF726FCC4B26048007807281CD2DFE80B
:1023400000F0041C293643688C00502C07D0532C15
:1023500009D0542C0BD10120574908700BE0022002
:102360005549087007E003205349087003E0002036
:102370005149087000BF00BF93E0504850490978A8
:1023800044544F480078401C4D49087004204A4985
:10239000087086E049484A4909784454484800781A
:1023A000401C4749087005204349087079E04348BC
:1023B00043490978445442480078401C4049087019
:1023C00006203D4908706CE00D2C0AD13B4800788E
:1023D00030383C4908700020394908703649087087
:1023E00015E03648364909784454002034490870CD
:1023F00032484078303831490978303901EB810171
:1024000000EB41002F49087000202B49087048E07C
:1024100048E00D2C0AD12948007830382A49087044
:102420000020274908702449087015E023482449F2
:1024300009784454002022490870204840783038F8
:102440001E490978303901EB810100EB41001E493A
:10245000087000201849087023E00D2C0AD1174895
:102460000078303819490870002015490870124961
:10247000087015E0114812490978445400201049A9
:1024800008700E48407830380C490978303901EB33
:10249000810100EB41000D490870002006490870D9
:1024A00000BF00BF40F225510148FFF713FC10BDEB
:1024B0000038014000080140340000202C000020BA
:1024C0003300002039000020440000204500002097
:1024D00010B540F225512C48FFF7D2FB18B12A481D
:1024E000FFF74EFBC4B210BD10B586B00446012103
:1024F0000820FEF793FA01218804FEF79CFA4FF4B6
:102500008060ADF8100003208DF8120018208DF8BF
:10251000130004A91D48FDF7C5FF4FF40060ADF896
:10252000100004208DF8130004A91848FDF7BAFF25
:1025300000940020ADF80400ADF80600ADF80800E6
:10254000ADF80C000C20ADF80A0069460E48FFF704
:102550001AFA01210C48FFF7A2FA012240F2255194
:102560000948FFF7A8FA27208DF8140000208DF8FD
:10257000150001208DF816008DF8170005A8FDF74D
:10258000C8FE06B010BD000000480040000C01402D
:1025900008B501210420FEF741FA01210820FEF7C9
:1025A0003DFAE020ADF8000010208DF80300032074
:1025B0008DF8020069461048FDF774FF0120ADF860
:1025C000000010208DF8030003208DF802006946FA
:1025D0000A48FDF767FF20210748FEF712F840215F
:1025E0000548FEF70EF880210348FEF708F80121A0
:1025F0000248FEF704F808BD00080140000C014045
:102600007FB505460C460121C802FEF707FAADF872
:102610000850ADF804400020ADF80A00ADF80600FF
:102620008DF80C0001A94648FEF730FB0122114647
:102630004348FEF7A2FE19208DF8000000208DF817
:10264000010003208DF8020001208DF80300684688
:10265000FDF75FFE01213A48FEF774FE7FBD30B5FD
:1026600087B005460C4601210220FEF7E4F901215E
:102670000846FEF7D3F9ADF81450ADF8104000202D
:10268000ADF81600ADF8120004A92E48FEF7FEFAC8
:102690006020ADF800000120ADF802000220ADF886
:1026A000080069462748FEF7BDFB08212548FEF7CC
:1026B0008FFF01212348FEF745FE07B030BD7FB5EF
:1026C00005460C4601210420FEF7B5F9ADF8085087
:1026D000ADF804400020ADF80A00ADF8060001A9ED
:1026E0001948FEF7D3FA012211461748FEF745FEB6
:1026F0001E208DF8000000208DF8010002208DF8CA
:10270000020001208DF803006846FDF702FE01215A
:102710000D48FEF717FE7FBD10B501210848FFF7F1
:10272000DAF801210648FFF7D3F810BD10B50121F2
:102730000548FFF7D0F801210348FFF7DDF810BD89
:10274000002C0140000400400008004010B586B095
:10275000044601210420FEF761F901214804FEF737
:102760006AF90420ADF8100003208DF8120018203B
:102770008DF8130004A92448FDF794FE0820ADF855
:10278000100004208DF8130004A91F48FDF78AFEED
:1027900000940020ADF80400ADF80600ADF8080084
:1027A000ADF80C000C20ADF80A0069461748FFF799
:1027B000EAF801211548FFF772F9012240F225518C
:1027C0001248FFF778F926208DF8140000208DF8C4
:1027D000150001208DF816008DF8170005A8FDF7EB
:1027E00098FD06B010BD10B540F225510748FFF71F
:1027F00047FA38B10548FFF7C3F9C4B22146034888
:10280000FFF7BAF910BD0000000801400044004085
:1028100000B585B001214802FEF700F90121480208
:10282000FEF716F900214FF40070FEF711F9224867
:10283000FFF76AFA002000908DF804008DF805007B
:102840004FF4602002900020039002208DF81000C9
:1028500069461948FFF77FFA01211748FFF7A7FAE1
:102860001548FFF7C6FA00BF1348FFF7C7FA00285C
:10287000FAD11148FFF7CCFA00BF0F48FFF7CDFAA5
:102880000028FAD105B000BD10B504460723012287
:1028900021460948FFF7F7FA01210748FFF7C7FA71
:1028A00000BF02210448FFF733FC0028F9D002489A
:1028B000FFF750FB10BD00000024014008B50121C6
:1028C0000420FEF7ABF81220ADF8000000208DF8D0
:1028D000030069463748FDF7E5FDFFF799FF08BD9E
:1028E0002DE9F05F4FF0000AD34611E00120FFF719
:1028F000CBFF054600F051FE0446514600F02FFC88
:1029000082460520FFF77FFC0BF1010000F0FF0B72
:10291000BBF10A0FEADB2849504600F078FC8246FA
:10292000504600F065FE80464FF06632234B00F0C3
:1029300053FD06460022224B00F0C0FD044600F085
:102940006AFE82465046BDE8F09F2DE9F05F4FF0E9
:10295000000AD34611E00420FFF796FF054600F079
:102960001CFE0446514600F0FAFB82460520FFF7A4
:102970004AFC0BF1010000F0FF0BBBF10A0FEADB90
:102980000D49504600F043FC8246504600F030FEB0
:1029900080464FF06632094B00F01EFD06460022CD
:1029A000074B00F08BFD044600F035FE8246504692
:1029B000BDE8F09F000801400000204166660A4023
:1029C00000FEAF4008B501210820FEF727F80121DD
:1029D0000846FEF723F84FF40040ADF8000004204D
:1029E0008DF8030069466148FDF75CFD08BD08B538
:1029F0004FF40040ADF8000003208DF802001020D5
:102A00008DF8030069465948FDF74CFD08BD10B527
:102A1000FFF7EDFF4FF400415448FDF7F2FD14209D
:102A2000FFF7D0FB4FF400415048FDF7E8FD1E20B2
:102A3000FFF7AAFB10BD10B50024FFF7C3FF04E0A9
:102A4000601CC4B20120FFF79FFB4FF400414748D0
:102A5000FDF7BBFD012801D1642CF1DB642C01DB07
:102A6000012010BD002404E0601CC4B20120FFF767
:102A70008BFB4FF400413D48FDF7A7FD08B9642CDE
:102A8000F2DB642C01DB0120EBE70020E9E710B565
:102A9000002404E0601CC4B20120FFF775FB4FF472
:102AA00000413248FDF791FD012801D1642CF1DB92
:102AB000002404E0601CC4B20120FFF765FB4FF462
:102AC00000412A48FDF781FD08B9642CF2DB28207B
:102AD000FFF75AFB4FF400412448FDF776FD01282B
:102AE00000D110BD0020FCE770B50024002506E0F1
:102AF0006006040EFFF7CBFF0443681CC5B2082D27
:102B0000F6DB204670BD7CB505460E46FFF77FFF1D
:102B1000FFF791FFF8B9002405E0FFF7E5FF0DF896
:102B20000400601CC4B2052CF7DB9DF800009DF882
:102B3000011008449DF8021008449DF80310084451
:102B40009DF80410884208D19DF8000030709DF86F
:102B50000200287001E001207CBD0020FCE710B5D8
:102B6000FFF755FFFFF767FF10BD0000000C0140A5
:102B700008B501210820FDF751FF0120ADF8000044
:102B800010208DF8030003208DF802006946A84844
:102B9000FDF788FC0220ADF800006946A448FDF767
:102BA00081FC08BD08B50220ADF8000010208DF8AA
:102BB000030003208DF8020069469D48FDF772FC72
:102BC00008BD08B50220ADF8000001208DF8020014
:102BD00004208DF8030069469548FDF763FC08BDA5
:102BE00010B5FFF7DFFF0120924908609249C1F854
:102BF00080011420FFF7C8FA00208E4908601420D5
:102C0000FFF7C2FA00208C49C1F8800110BD10B551
:102C1000FFF7C8FF00208749091F08608649C1F8EF
:102C200084011420FFF7B0FA01208249091F0860CF
:102C30008149C1F884011420FFF7A6FA10BD10B530
:102C40000024FFF7BEFF01207A4908600A20FFF741
:102C50009BFA01207849C1F880010A20FFF794FA15
:102C600007E0601CC4B2FA2C03DDFFF7D0FF01209F
:102C700010BD02216E48FDF7A8FC0028F1D16D4976
:102C8000091F086000BFF3E710B500206949091F5C
:102C90000860FFF787FF00206749C1F8840114200E
:102CA000FFF772FA01206349091F08601420FFF73B
:102CB0006BFA00206049C1F8800110BD10B50020FA
:102CC0005C49091F0860FFF76DFF01205A49C1F8F0
:102CD00084011420FFF758FA01205649091F0860A3
:102CE0001420FFF751FA00205349C1F8800110BDAC
:102CF00070B50446FFF756FF00204E49091F0860D3
:102D000000251DE0E00918B101204A49086002E0F1
:102D10000020484908606006040E1420FFF734FACA
:102D200001204449091F08601420FFF72DFA0020F4
:102D30004149C1F880011420FFF726FA681CC5B28A
:102D4000082DDFDB1420FFF71FFA70BD70B50546B4
:102D50000024FFF736FF00261AE000203549091F3E
:102D600008601420FFF710FA01203349C1F88001F0
:102D70004FF6FF7000EA440402212D48FDF725FCC0
:102D800008B1601C84B21420FFF7FEF9701CC6B2B3
:102D9000082EE2DB15B9FFF791FF01E0FFF774FFA2
:102DA000204670BD70B505460C46FFF719FFB020F0
:102DB000FFF79EFFFFF743FF2846FFF799FFFFF756
:102DC0003EFF2046FFF794FFFFF739FFFFF71FFF95
:102DD0006420FFF718FA70BD10B5FFF7C9FE032194
:102DE0002020FFF7DFFF10BD70B5FFF7F9FEB1201F
:102DF000FFF77EFFFFF723FF0120FFF7A7FF044641
:102E000024020120FFF7A2FF04440120FFF79EFFE8
:102E1000C5B200BF24020120FFF798FF044424023A
:102E20000020FFF793FF0444FFF7F1FE204670BD3A
:102E3000000C014084812142008021422DE9FE43A3
:102E400001210846FDF7F7FD40F2E730ADF8040038
:102E50002548006800F0A6FB06460022234B00F040
:102E60002DFB04460022224B00F0B0FA804600F011
:102E7000A6FB80B2ADF800000020ADF80200694664
:102E80004FF08040FDF702FF01218807FEF75AFB53
:102E900000214FF08040FEF7ADFC01218807FEF7CE
:102EA00017FDBDE8FE8301B500204FF08041888406
:102EB00001218807FEF746FA0DE000BF01218807CF
:102EC000FEF7FDFC0128F9D101218007FEF700FD86
:102ED0000098401E009000980028EED100214FF08D
:102EE0008040FEF72FFA08BD0000002080842E41AC
:102EF0000000F03F10B54FF4A060FDF705FAFFF7B2
:102F00002BF94FF4E130FFF7BEF9FFF797FFFFF71A
:102F100026FEFFF73DFBFFF7D1FCFFF75DFF6420C6
:102F2000FFF771F908212020FFF73CFF10BDFFF7E4
:102F3000E1FFAAE055495648FFF7E5FD08212020AA
:102F4000FFF730FFFFF750FF52490860084600685E
:102F5000000C51490860FFF7F8FC824600F048FB7E
:102F600006464E4A4E4B00F037FA04464D4A4E4B49
:102F700000F08BF9804600F04EFB4C490860434856
:102F80000278434801784AA000F0B0FC424800684B
:102F9000A0F5C8714DA000F0A9FC4448006800F0FD
:102FA00027FB044622460B464DA000F09FFC5148EB
:102FB000017851A000F09AFC5448017854A000F028
:102FC00095FC5748017857A000F090FC30480078F5
:102FD00048490978884204DC20215748FDF70FFB57
:102FE00003E020215448FDF70CFB4848007838B92D
:102FF00040215148FDF705FB0020504908703BE097
:103000004748007838B940214B48FDF7F8FA0020CE
:103010004A49087030E04A480078012814D14748EE
:1030200000783A490978884209DB40214248FDF797
:10303000E8FA002041490870414908701CE040212D
:103040003D48FDF7DCFA17E03D480078A0B93B4861
:1030500000783349097888420ADB40213648FDF779
:10306000CEFA00203549087001203549087003E088
:1030700040213148FDF7C5FA30480078401C2F49FF
:10308000087040F25230FFF70EFF53E73A0000207D
:1030900038000020400000203C000020EC51B81E09
:1030A00085CB4A4005A3923A016D2240480000209A
:1030B000CEC2B6C8A3BA2564A1E60D0ACAAAB6C88C
:1030C000A3BA256425250D0A00000000B6FED1F53F
:1030D000BBAFCCBCC5A8B6C8A3BA25640D0A000016
:1030E000D1F5C6F8C5A8B6C8A3BA252E31660D0A13
:1030F0000000000039000020CEC2B6C8E3D0D6B52B
:10310000A3BA2564A1E60D0A0000000044000020D7
:10311000BFAAC6F4CAB1BCE4A3BA2564730D0A0001
:1031200045000020CDA3D6B9CAB1BCE4A3BA25643A
:10313000730D0A0D0A0D0A00000801404600002028
:103140003B000020704700BFFEE700BFFEE700BF66
:10315000FEE700BFFEE77047704770477047F0B466
:1031600080EA0102D40F4200B2EB410F02D20246C4
:10317000084611464A0042D0C30DDDB2C1F3C75222
:10318000AD1A202D35DAC1F3160141F4000204B165
:103190005242C5F1200602FA06F12A411044B3EB6F
:1031A000D05F23D0C4B1012DA0EBC35009DCF0BC2B
:1031B0004FF0004202EAC352DBB200F5000000F01B
:1031C000C7BA400000F1807000EBC350A0F18070DE
:1031D00040EAD170490009E0490841EAC071A0EB1A
:1031E000C35000F50000400800EBC350F0BC00F0F5
:1031F000A6BA6142012202EB4101001BF6E7F0BCD6
:10320000704781F00041AAE780F00040A7E730B4A2
:1032100080EA010202F0004530F0004221F0004057
:1032200013D090B1C30DD40DC2F31601C0F3160034
:10323000E41A41F4000140F400027D34914201D3CC
:10324000641C00E04900002C02DA30BC002070470A
:103250004FF400000023914201D3891A0343400830
:103260004FEA4101F7D151B1914202D14FF00041F3
:1032700005E002D24FF0010101E06FF0010103EB24
:10328000C450284430BC00F05ABA2DE9FE4F8046A5
:1032900081EA0300C00F0C46009021F0004123F0AA
:1032A0000045B8EB0200A94105D2404621469046B0
:1032B0001C460B46024623F00040104347D0270D22
:1032C000C7F30A00C3F30A510290401A0190402844
:1032D0006BDAC3F3130040F4801B0098924620B1D0
:1032E0000023D2EB030A63EB0B0B01985946C0F1A4
:1032F0004002504600F0F2F906460D465046594647
:10330000019A00F00AFA10EB08006141002487EAF4
:10331000115284EAE7731A4340D0009A62B3019ACB
:10332000012A4FEA075215DC001B61EB02014FF046
:10333000004202EA0752CDE90042001C41F580112B
:1033400032462B4600F041FA03B0BDE8F08F40460C
:103350002146F9E7001B61EB0201001C41F58013D7
:1033600000185B412018A2F5001747EB030140EA63
:10337000D570B6196D4111E06D084FEA360645EA81
:10338000C0754FEA0752001B61EB0201001C41F5BA
:10339000801149084FEA30000019514132462B464E
:1033A00003B0BDE8F04F00F001BA009801224000E0
:1033B0000023D0EB020263EBE073009821464FEA52
:1033C000E074B8EB000061EB0401E9E783F000432F
:1033D0005BE781F0004158E72DE9FE4F81EA0304E5
:1033E00004F0004421F0004100944FF0000B23F062
:1033F000004350EA01045ED052EA03045BD0C3F3F9
:103400000A54C1F30A552C44A4F2F3340194A0FBEE
:103410000254C1F3130141F48011C3F3130343F4C5
:10342000801301FB024400FB034E840A970A44EA1E
:10343000815447EA8357A4FB076802958D0A05FB70
:1034400007854FEA932C04FB0C542705029D4FEA95
:10345000065847EA1637B5EB08056EEB070C870EE2
:10346000920E47EA811742EA8312A7FB0201B6EBEC
:103470000B0164EB00042B0D43EA0C335E1844EBA4
:103480001C50DA465146E7FB0201C5F313044FEA2C
:103490000B3343EA14534FEA0432019C43EA060318
:1034A000A4F10C040294009CCDE900B400F08DF965
:1034B00003B0BDE8F08F00200146F9E72DE9F04D9B
:1034C00081EA030404F0004B21F0004514464FF05C
:1034D000000A23F0004150EA050220D054EA01021C
:1034E0001DD0C5F30A570246C5F31303C1F31300F9
:1034F000C1F30A5640F4801543F48013A7EB060885
:10350000101BD64608F2FD3873EB050002D308F114
:10351000010801E092185B41B8F1000F03DA0020C6
:103520000146BDE8F08D00204FF480110646844628
:103530000EE0171B73EB050705D3121B63EB0503A6
:1035400006434CEA010C49084FEA300092185B41EF
:1035500050EA0107EDD152EA030012D082EA0400DA
:1035600083EA0501084305D0101BAB4106D20122B6
:10357000002306E000224FF0004302E06FF001025A
:1035800053101AEB06004CEB085110EB0A0041EB0C
:103590000B01BDE8F04D00F009B996230022114659
:1035A00000F0D6B80EB540F2334102910021CDE9CA
:1035B00000110A460B4600F008F903B000BDC1F344
:1035C0000A5210B5C1F3130140F2FF3341F48011E8
:1035D0009A4201DA002010BD40F233439A42A2F22F
:1035E000334203DC524200F088F810BD904010BD19
:1035F00000F0004230F000400AD0C10D01F56071CA
:10360000C0F3160042EA0151C20840071143704757
:1036100000200146704701F0004330B421F0004122
:1036200050EA010206D00A0DA2F56072C1F313013F
:10363000002A02DC30BC00207047440F44EAC10479
:10364000C100E01830BC00EBC25000F078B830B5D3
:103650000B46014600202022012409E021FA02F550
:103660009D4205D303FA02F5491B04FA02F52844EA
:10367000151EA2F10102F1DC30BD2DE9F05F054617
:10368000002092469B4688460646814640241BE021
:10369000284641464746224600F02FF853465A46F0
:1036A000C01A914110D311461846224600F016F870
:1036B0002D1A67EB01084F4622460120002100F039
:1036C0000DF817EB00094E41201EA4F10104DFDCC8
:1036D000484631462A464346BDE8F09F202A04DB8F
:1036E000203A00FA02F1002070479140C2F1200315
:1036F00020FA03F3194390407047202A04DB203A54
:1037000021FA02F00021704721FA02F3D040C2F101
:1037100020029140084319467047202A06DBCB1748
:10372000203A41FA02F043EAE07306E041FA02F37C
:10373000D040C2F120029140084319467047002949
:10374000A8BF7047401C490008BF20F00100704727
:1037500010B4B0FA80FC00FA0CF050EA010404BF87
:1037600010BC704749B1CCF1200421FA04F411FADD
:103770000CF118BF012121430843A3EB0C01CB1D21
:103780004FEA00614FEA102042BF002010BC704792
:1037900000EBC35010440029A4BF10BC7047401C6C
:1037A000490008BF20F0010010BC704710B5141E7E
:1037B00073F1000408DA401C41F1000192185B41EA
:1037C0001A4301D120F0010010BD2DE9F04D9246C1
:1037D0009B4611B1B1FA81F202E0B0FA80F22032D8
:1037E0009046FFF77BFF04460F4640EA0A0041EA95
:1037F0000B0153465A46084313D0114653EA0100C1
:1038000019D0C8F140025046FFF777FF05460E4633
:10381000504659464246FFF761FF084305D0012054
:1038200004E020463946BDE8F08D0020054346EA15
:10383000E0762C4337430A986305E40AA0EB0800BE
:103840000022FD0A44EA47540A3002D5002001460E
:10385000E9E7010510196941DDE9084500196941E9
:10386000BDE8F04DA2E7C1F30A52C1F3130140F2E3
:10387000FF3341F480119A4202DA0020014670477A
:1038800040F233439A42A2F2334202DC5242FFF743
:1038900034BFFFF723BF000030B5041E71F10004F0
:1038A00004DB4FF00044404264EB0101141E73F14D
:1038B000000405DB1C464FF00043524263EB040357
:1038C000994208BF904230BD064C074D06E0E068C3
:1038D00040F0010394E8070098471034AC42F6D357
:1038E000FCF708FCB8410008D84100080FB4054BAC
:1038F00010B503A9044A029800F0DAF810BC5DF88C
:1039000014FB00004D2200084C00002002E008C813
:10391000121F08C1002AFAD170477047002001E049
:1039200001C1121F002AFBD1704700002DE9FF5F83
:1039300082B00021DDE90430020DDDF840B0034320
:1039400018D044F61050A2F2FF32424315141198D9
:1039500001281FD0A5EB0B00401C5FEA000A4FF0C6
:1039600000064E4FDFF83891B046504615D5CAF1E3
:10397000000413E0119801244AA3012801D16FEA41
:103980000B010298119AC0E90031C0E9024206B069
:10399000BDE8F09FCBF10000DFE704460021404A7C
:1039A000491842EB0450CDE9001012E0E00707D0BF
:1039B00032463B4640464946FFF70EFD8046894663
:1039C00032463B4610461946FFF706FD06460F46AF
:1039D0006410002CEAD1DDE90401DDE90023BAF12D
:1039E000000F06DAFFF7F8FC42464B46FFF7F4FCFF
:1039F00005E0FFF763FD42464B46FFF75FFD0446D7
:103A00000E460022284BFFF747FF03D84FF0FF3048
:103A1000014607E00022254B20463146FFF735FCE2
:103A2000FFF721FF102409E0002C0ADB0A22002303
:103A3000FFF723FE039B30321A55641E50EA010241
:103A4000F2D1641C039AC4F111031444119A012A9F
:103A500003D0012208430DD10AE0084304D000201E
:103A60004FF0110B119072E7A3EB0B056D1E0DE0EB
:103A70005B4504DD4FF0000205F1010504E003DAC7
:103A80004FF00002A5F10105002AECD0029811992F
:103A9000C0E90231C0E9004579E7000000001440A8
:103AA0000000F03F300000000000F0430000E03F65
:103AB0002DE9FF4F95B09A46884606460025EEE16F
:103AC000252877D100242746F94A0121039400E0F4
:103AD000044316F8013F203B01FA03F01042F7D1EE
:103AE00030782A2811D06FF02F033078A0F13002FF
:103AF000092A16D8039A44F0020402EB820203EB6F
:103B000042021044761C0390EFE758F8042B03920E
:103B1000002A03DA504244F40054039044F00204B3
:103B2000761C30782E2816D116F8010F44F00404C4
:103B30002A280DD06FF02F023078A0F13003092B26
:103B400009D807EB870302EB4303C718761CF3E79A
:103B500058F8047B761C30786C280FD006DC4C2893
:103B600017D068280DD06A2814D104E0742810D02A
:103B70007A280FD10DE044F400140AE044F48014D4
:103B800001E044F440147278824202D104F58014BA
:103B9000761C761C307866280BD013DC582877D03A
:103BA00009DC002875D04528F6D04628F4D04728EF
:103BB0001AD193E118E0632835D0642879D06528BC
:103BC00012D18BE1702873D008DC6728F1D0692806
:103BD0006FD06E280DD06F2806D1ACE073282CD0A2
:103BE000752874D0782853D05246179990476D1C89
:103BF00054E1C4F30250022809D003280DD0D8F8AC
:103C0000001004280DD00D6008F1040846E1D8F832
:103C10000010EA17C1E90052F6E7D8F800100D804D
:103C2000F2E70D70F0E718F8041B8DF80010002083
:103C30008DF80100EB46012003E058F804BB4FF07B
:103C4000FF3061074FF0000102D40DE009F10101DE
:103C50008946B9420FDA8145F8DB1BF809100029C3
:103C6000F4D108E009F1010189468142FADB1BF831
:103C700009100029F6D103985346A0EB0907214605
:103C80003846179A00F080FA284400EB090507E04F
:103C900044E008E10DE01BF8010B524617999047EC
:103CA000B9F10109F7D2534621463846179AF2E096
:103CB00039E00A21C4F302524FF0000B0091022AAE
:103CC00006D058F8040BC117032A09D00AE023E0F4
:103CD00008F1070020F00702F2E80201904605E033
:103CE00000B2C117042A01D140B2C117002906DA77
:103CF0000A460021404261EB02012D2202E022052A
:103D000004D52B228DF80420012203E0E20701D024
:103D10002022F7E7914657E00A2100E010214FF0FA
:103D2000000B00910BE010214FF0000B44F0040455
:103D30000827009103E008204FF0000B0090C4F327
:103D40000252022A05D058F8040B0021032A08D099
:103D500008E008F1070020F00702F2E802019046AF
:103D600003E080B2042A00D1C0B24FF0000922075C
:103D70002AD53278702A07D0DDF800C08CF0100CFC
:103D80005CEA0B0C05D00EE040228DF804200122E5
:103D900008E050EA010306D030238DF804308DF896
:103DA000052002229146009B83F0080353EA0B038F
:103DB0000AD150EA010201D1620705D530228DF8FF
:103DC00004204FF001097F1E3278582A04D039A20E
:103DD0000C920CAA02920BE03BA2F9E75B46009A18
:103DE000FFF74BFC0C9B9B5C029A521E02921370D5
:103DF00050EA0102F2D1029804A9081A00F1200B3E
:103E0000600702D524F4803400E001275F4502DD1D
:103E1000A7EB0B0000E0002000EB0B0100900398E3
:103E20004944401A0390E00306D453462146179AAA
:103E3000039800F0A9F90544002706E001A85246BE
:103E4000C05D179990476D1C7F1C4F45F6DBE00362
:103E50000CD553462146179A039800F095F905446E
:103E600004E030205246179990476D1C0099481E77
:103E700000900029F5DC08E002980299524600788B
:103E8000491C0291179990476D1CBBF10001ABF1E1
:103E9000010BF1DC5BE100F065F90544761C30783C
:103EA00000287FF40DAE19B02846BDE8F08F000061
:103EB0000928010030313233343536373839616200
:103EC00063646566000000003031323334353637C4
:103ED000383941424344454600000000600700D4A1
:103EE000062708F1070020F00700F0E802238046CB
:103EF00003F0004C5FEA0C0001D097A009E0200518
:103F000001D596A005E0E00701D095A001E0AFF251
:103F10004C001390307823F0004365280CD006DC69
:103F2000452809D046281DD047287FD13BE0662888
:103F300018D067287AD136E00021112F01DB11203B
:103F400000E0781CCDE9000104A90CA8FFF7EEFC05
:103F5000DDE90D010C9A4FF0000B07F101091092F9
:103F600000914EE04FF000400097CDE9011004A908
:103F70000CA8FFF7DBFCDDE90D020C9B0F994FF05D
:103F8000000B91461093009211B9791C00EB0109C6
:103F9000B7EB090003D4C0F1FF3B07F10109A9EB1E
:103FA0000700019042E0012F00DA01270021112FC4
:103FB00001DD112000E03846CDE9000104A90CA87C
:103FC000FFF7B4FCDDE90D010C9A00914FF0000BF6
:103FD000B946109221070FD4009A4A4503DA914658
:103FE00001E0A9F10109B9F1010F05DD109AA9F16C
:103FF0000101515C3029F4D0B84202DA10F1040F0B
:1040000003DA0121CDE9011010E0002803DC83442C
:10401000A9EB000102E0411C494500DD8946A0EB07
:104020000B00401C01904FF000400290200705D487
:104030000198484502DB4FF0FF30019000208DF8D9
:104040004B0002980DF14B07B0F1004F25D0022034
:104050000C902B200D90029800280CDA4042029020
:104060002D200D9007E00A210298FFF7F0FA303179
:10407000029007F8011D0C99481E0C900029F2DCF3
:1040800002980028EFD1791E0D980870307800F062
:10409000200040F0450007F8020D11A8C01BC01D0C
:1040A00002901398007800B1012000EB09010198FB
:1040B00001EBE071029801440398401A401E0390FE
:1040C000E00306D453462146179A039800F05CF8A3
:1040D00005441398007818B15246179990476D1C03
:1040E000E00323D553462146179A039800F04CF875
:1040F00005441BE0BBF1000F07DB0098584504DDC9
:104100001098179910F80B0001E0179930205246CB
:10411000904701980BF1010B401E05F1010501903C
:1041200004D12E205246179990476D1CB9F1000119
:10413000A9F10109DEDC05E017F8010B52461799D9
:1041400090476D1C0299481E02900029F4DC5346EA
:104150002146179A03989EE62D0000002B000000D0
:10416000200000002DE9F041044600251E461746B8
:10417000880404D405E039462020B0476D1C641E35
:10418000F9D52846BDE8F0812DE9F0410446002527
:104190001E469046C80301D5302700E0202788043A
:1041A00004D505E041463846B0476D1C641EF9D57C
:1041B0002846BDE8F0810000D8410008000000203A
:1041C000500000000C390008284200085000002070
:1041D000000400001C39000800A24A04000000008E
:1041E00000000000010203040607080900000000A7
:1041F0000102030401020304060708090204060879
:1042000000000000000000000000000000000000AE
:104210000019000100000000000000000A05000075
:08422000000000000000000096
:04000005080000ED02
:00000001FF
